:020000040800F2
:1000000000000520ED2F0008612E0008632E000877
:10001000652E0008672E0008692E00080000000009
:100020000000000000000000000000006B2E00082F
:100030006D2E0008000000006F2E0008712E0008D1
:100040003D3000083D3000083D3000083D300008DC
:100050003D3000083D3000083D3000083D300008CC
:100060003D3000083D3000083D3000083D300008BC
:100070003D3000083D3000083D3000083D300008AC
:100080003D3000083D3000083D3000083D3000089C
:100090003D3000083D3000083D3000083D3000088C
:1000A0003D3000083D3000083D3000083D3000087C
:1000B0003D3000083D3000083D3000083D3000086C
:1000C0003D3000083D3000083D3000083D3000085C
:1000D0003D3000083D3000083D3000083D3000084C
:1000E0003D3000083D3000083D3000083D3000083C
:1000F0003D3000083D3000083D3000083D3000082C
:100100003D3000083D3000083D3000083D3000081B
:100110003D3000083D3000083D3000083D3000080B
:100120003D3000083D3000083D3000083D300008FB
:100130003D3000083D3000083D3000083D300008EB
:100140003D3000083D3000083D3000083D300008DB
:100150003D3000083D3000083D3000083D300008CB
:100160003D3000083D3000083D3000083D300008BB
:100170003D3000083D3000083D3000080000000020
:100180003D3000083D3000083D3000083D3000089B
:100190003D3000083D3000083D3000083D3000088B
:1001A0003D3000083D3000083D3000083D3000087B
:1001B0003D3000083D3000083D3000083D3000086B
:0801C0003D3000083D3000084D
:1001D00010B5054C237833B9044B13B10448AFF381
:1001E00000800123237010BD2802002000000000C1
:1001F0001C19010808B5034B1BB103490348AFF3B1
:10020000008008BD000000002C0200201C1901081D
:1002100081F0004102E000BF83F0004330B54FEAB7
:1002200041044FEA430594EA050F08BF90EA020F24
:100230001FBF54EA000C55EA020C7FEA645C7FEAB7
:10024000655C00F0E2804FEA5454D4EB5555B8BFDA
:100250006D420CDD2C4480EA020281EA030382EA4B
:10026000000083EA010180EA020281EA0303362DDD
:1002700088BF30BD11F0004F4FEA01314FF4801CB0
:100280004CEA113102D0404261EB410113F0004FC2
:100290004FEA03334CEA133302D0524263EB430379
:1002A00094EA050F00F0A780A4F10104D5F1200E17
:1002B0000DDB02FA0EFC22FA05F2801841F1000172
:1002C00003FA0EF2801843FA05F359410EE0A5F146
:1002D00020050EF1200E012A03FA0EFC28BF4CF077
:1002E000020C43FA05F3C01851EBE37101F000452D
:1002F00007D54FF0000EDCF1000C7EEB00006EEB3A
:100300000101B1F5801F1BD3B1F5001F0CD34908C3
:100310005FEA30004FEA3C0C04F101044FEA44521A
:1003200012F5800F80F09A80BCF1004F08BF5FEAA1
:10033000500C50F1000041EB045141EA050130BD81
:100340005FEA4C0C404141EB010111F4801FA4F124
:100350000104E9D191F0000F04BF01460020B1FA79
:1003600081F308BF2033A3F10B03B3F120020CDAB1
:100370000C3208DD02F1140CC2F10C0201FA0CF08F
:1003800021FA02F10CE002F11402D8BFC2F1200CF4
:1003900001FA02F120FA0CFCDCBF41EA0C019040AA
:1003A000E41AA2BF01EB0451294330BD6FEA0404F3
:1003B0001F3C1CDA0C340EDC04F11404C4F12002DE
:1003C00020FA04F001FA02F340EA030021FA04F3F0
:1003D00045EA030130BDC4F10C04C4F1200220FA47
:1003E00002F001FA04F340EA0300294630BD21FA85
:1003F00004F0294630BD94F0000F83F4801306BF4B
:1004000081F480110134013D4EE77FEA645C18BF3E
:100410007FEA655C29D094EA050F08BF90EA020FD5
:1004200005D054EA000C04BF1946104630BD91EACD
:10043000030F1EBF0021002030BD5FEA545C05D1D0
:100440004000494128BF41F0004130BD14F580040F
:100450003CBF01F5801130BD01F0004545F0FE4183
:1004600041F470014FF0000030BD7FEA645C1ABFB8
:10047000194610467FEA655C1CBF0B46024650EAEF
:10048000013406BF52EA033591EA030F41F400211B
:1004900030BD00BF90F0000F04BF0021704730B5A1
:1004A0004FF4806404F132044FF000054FF0000176
:1004B00050E700BF90F0000F04BF0021704730B537
:1004C0004FF4806404F1320410F0004548BF40420C
:1004D0004FF000013EE700BF42004FEAE2014FEA61
:1004E00031014FEA02701FBF12F07F4393F07F4F3C
:1004F00081F06051704732F07F4208BF704793F03F
:100500007F4F04BF41F40021704730B54FF4607451
:1005100001F0004521F000411CE700BF50EA010254
:1005200008BF704730B54FF000050AE050EA0102FD
:1005300008BF704730B511F0004502D5404261EB6D
:1005400041014FF4806404F132045FEA915C3FF4AE
:10055000D8AE4FF003025FEADC0C18BF03325FEA4B
:10056000DC0C18BF033202EBDC02C2F1200300FAFC
:1005700003FC20FA02F001FA03FE40EA0E0021FA21
:1005800002F11444BDE600BF4FEA410212F5001229
:1005900015D211D56FF47873B3EB625212D94FEACA
:1005A000C12343F0004343EA505311F0004F23FAB4
:1005B00002F018BF404270474FF00000704750EA09
:1005C000013005D111F0004008BF6FF000407047C6
:1005D0004FF00000704700BF53B94AB9002908BF67
:1005E00000281CBF4FF0FF314FF0FF3000F072B910
:1005F000ADF1080C6DE904CE00F006F8DDF804E07A
:10060000DDE9022304B070472DE9F047089E044657
:100610008846002B4BD18A42154667D9B2FA82F23E
:100620004AB1C2F1200701FA02F320FA07F7954018
:1006300047EA030894404FEA154E230CB8FBFEF737
:100640001FFA85FC0EFB178843EA084307FB0CF1F1
:10065000994209D9EB1807F1FF3080F01B819942CC
:1006600040F21881023F2B445B1AA4B2B3FBFEF0A8
:100670000EFB103344EA034400FB0CFCA44509D9EB
:100680002C1900F1FF3380F00781A44540F204816A
:1006900002382C4440EA0740A4EB0C0400271EB1AA
:1006A000D4400023C6E900433946BDE8F0878B42B9
:1006B00009D9002E00F0EB800027C6E9000138467A
:1006C0003946BDE8F087B3FA83F7002F47D18B4254
:1006D00002D3824200F2FA80841A61EB0303012004
:1006E0009846002EE0D0C6E90048DDE702B9FFDEFB
:1006F000B2FA82F2002A40F08F80491B4FEA154E71
:100700001FFA85F80127B1FBFEFC230C0EFB1C1120
:1007100043EA014308FB0CF1994207D9EB180CF1AD
:10072000FF3002D2994200F2CD808446591AA3B21A
:10073000B1FBFEF00EFB101443EA044408FB00F882
:10074000A04507D92C1900F1FF3302D2A04500F2D1
:10075000B6801846A4EB080440EA0C409FE7C7F1B6
:10076000200CBB4022FA0CFE4EEA030E01FA07F4FD
:1007700020FA0CF521FA0CF34FEA1E482543B3FB8F
:10078000F8F92C0C08FB19331FFA8EFA44EA0343DC
:1007900009FB0AF49C4202FA07F200FA07F10BD9AE
:1007A0001EEB030309F1FF3080F087809C4240F28A
:1007B0008480A9F1020973441B1BADB2B3FBF8F0AE
:1007C00008FB103345EA034400FB0AFAA24508D9A6
:1007D0001EEB040400F1FF336BD2A24569D9023845
:1007E000744440EA0940A0FB0289A4EB0A044C458A
:1007F000C2464B4654D351D0002E69D0B1EB0A0506
:1008000064EB030404FA0CFCFD40FC404CEA0505D3
:10081000C6E90054002747E7C2F1200320FA03F796
:10082000954001FA02F021FA03F34FEA154E3843DE
:10083000010CB3FBFEF71FFA85F80EFB173341EAF4
:10084000034107FB08F38B4204FA02F407D9691845
:1008500007F1FF3C2FD28B422DD9023F2944CB1AFE
:1008600081B2B3FBFEF00EFB103341EA034100FB03
:1008700008F38B4207D9691800F1FF3C17D28B426D
:1008800015D902382944C91A40EA07473BE73746D9
:10089000304609E70746E7E61846FBE64145ABD296
:1008A000B8EB020A69EB0E0201381346A4E7604672
:1008B000E9E7184695E76746D1E781467CE70238C5
:1008C0002C4447E7ACF1020C2B442FE7384608E7ED
:1008D0003746E9E6704700BF034613F8012B002AAC
:1008E000FBD1181A0138704700000000000000001A
:1008F00001F0FF01102A2BDB10F0070F08D010F8D1
:10090000013B013A8B422DD010F0070F42B3F6D1D4
:10091000F0B441EA012141EA014122F007047FF0ED
:1009200000070023F0E80256083C85EA010586EA44
:10093000010685FA47F5A3FA87F586FA47F6A5FA80
:1009400087F68EB9EED1F0BC01F0FF0102F007028C
:1009500032B110F8013B013A83EA010313B1F8D137
:100960000020704701387047002D06BF3546033818
:10097000073815F0010F07D1013015F4807F02BF51
:10098000013015F4C03F0130F0BC0138704700BFA2
:100990002DE9F0438BB0364B1A6B42F480521A6348
:1009A0001A6B02F480520192019A1A6B42F0100203
:1009B0001A631A6B02F010020292029A1A6B42F04A
:1009C00020021A631A6B02F020020392039A1A6B38
:1009D00042F040021A631B6B03F040030493049B34
:1009E000244C00224FF47841204600F013FCDFF83D
:1009F00088900022FF21484600F00CFCDFF87C8044
:100A000000224FF47F41404600F004FC4FF478434D
:100A1000059301270697002607960325089505A943
:100A2000204600F007FBFF230593069707960895DD
:100A300005A9484600F0FEFA4FF47F430593069758
:100A40000796089505A9404600F0F4FA4FF40053C4
:100A5000A3614FF40063A3614FF48053A3614FF48B
:100A60000043A3614FF48043A3610BB0BDE8F08362
:100A700000380240001402400018024000100240FA
:100A800010B4C34311494FF07F428A61104A4FF0BE
:100A9000005494614FF0004494611B0403F47F03FD
:100AA000C4B223430B4CA3614B6900F47F4018434D
:100AB00048614FF0006393614FF4006393614FF41A
:100AC000005393615DF8044B704700BF0010024073
:100AD000001402400018024010B4C34311494FF003
:100AE0007F428A61104A4FF0005494614FF40044F1
:100AF00094611B0403F47F03C4B223430B4CA36132
:100B00004B6900F47F40184348614FF000639361E4
:100B10004FF4006393614FF4005393615DF8044B0D
:100B2000704700BF0010024000140240001802404D
:100B300038B505460C4604E035F8020BFFF7CCFF4C
:100B4000013C002CF8D138BD10B5544C4FF0804317
:100B5000A3614FF4FA7000F0EBF94FF48043A36106
:100B6000642000F0E5F90120FFF78AFF0A2000F079
:100B7000DFF9E220FFF784FF1D20FFF7ADFF022021
:100B8000FFF7AAFF0420FFF7A7FFE020FFF778FF99
:100B90000120FFF7A1FF642000F0CAF9E020FFF771
:100BA0006FFF0320FFF798FFB020FFF769FF2020B9
:100BB000FFF792FF0020FFF78FFF0120FFF78CFF68
:100BC000DF20FFF789FF0120FFF786FF0F20FFF7E7
:100BD00083FF0020FFF780FFF020FFF751FF032085
:100BE000FFF77AFFE620FFF74BFF0120FFF774FFC6
:100BF0007520FFF771FFED20FFF76EFFB420FFF7C0
:100C00003FFF0220FFF768FF1420FFF765FF002079
:100C1000FFF762FF2C20FFF75FFF0220FFF75CFF6A
:100C20000020FFF759FF0020FFF756FF0020FFF7D5
:100C300053FFB620FFF724FF0120FFF74DFF1E20D2
:100C4000FFF74AFF0020FFF747FF0C20FFF744FFA4
:100C50000620FFF741FF0020FFF73EFF0020FFF7CF
:100C60003BFF2920FFF70CFF0A2000F061F9BE20AE
:100C7000FFF706FF0420FFF72FFFC020FFF72CFF30
:100C80000120FFF729FF4020FFF726FF0020FFF794
:100C900023FF0020FFF720FF10BD00BF001402401B
:100CA00084B008B50DF1080C8CE80F004C226146A9
:100CB000034810F010FABDE8084004B0704700BFC8
:100CC0007C95012000B585B08DF80C008DF80D10D5
:100CD0004FF440530093022303AA8821034800F0F5
:100CE0002BFC0028F4D105B05DF804FB7C950120B5
:100CF00000B587B08DF80F0000238DF814304FF445
:100D00004053009301230DF10F0288210A4800F09F
:100D100013FC0028F3D14FF440530093012305AA9C
:100D20008821054800F0D0FC0028F4D19DF814007B
:100D300007B05DF804FB00BF7C95012000B587B0CB
:100D40008DF80F0000238DF814308DF8153042F225
:100D50001073009301230DF10F0288210C4800F05D
:100D6000EBFB0028F3D142F210730093022305AA93
:100D70008821074800F0A8FC0028F4D19DF8140051
:100D80009DF8153043EA002007B05DF804FB00BF72
:100D90007C95012008B502210320FFF793FF0A206C
:100DA00000F0C6F804210846FFF78CFF03210A2053
:100DB000FFF788FF48212020FFF784FF022000F082
:100DC000B7F801212120FFF77DFF00211720FFF751
:100DD00079FFA3214120FFF775FF01214A20FFF78A
:100DE00071FF01214B20FFF76DFF00214B20FFF722
:100DF00069FF07215620FFF765FF01215820FFF703
:100E000061FF30214020FFF75DFF31214020FFF7D7
:100E100059FFFF210B20FFF755FF01210920FFF7A4
:100E200051FF08BD10B54B20FFF762FF10F0200FF7
:100E300010D0FF210B20FFF745FF4020FFF758FFA0
:100E400010F0800F21D1124B00221A805A809A8014
:100E5000012019E04D20FFF771FF0D4C20804F203D
:100E6000FFF76CFF60805120FFF742FFA080012157
:100E70004B20FFF727FF00214B20FFF723FFFF2127
:100E80000B20FFF71FFF012010BD0020FCE700BF73
:100E900044020020014B1888704700BF4402002024
:100EA000014B5888704700BF4402002010B504462B
:100EB0000E4B18784FF47A73B3FBF0F30C4A1068BA
:100EC000B0FBF3F000F08CF868B90F2C01D90120C9
:100ED0000AE0002221464FF0FF3000F04FF8034BAC
:100EE0005C60002000E0012010BD00BF0000002079
:100EF0000800002008B5032000F02EF80020FFF7BE
:100F0000D5FF01F01DFF002008BD0000034A116855
:100F1000034B1B780B441360704700BFC89501203A
:100F200000000020014B1868704700BFC8950120E1
:100F300038B50446FFF7F6FF0546B4F1FF3F02D08F
:100F4000044B1B781C44FFF7EDFF401BA042FAD373
:100F500038BD00BF000000200649CB6823F4E063E1
:100F60001B041B0C000200F4E0600343024A1A4316
:100F7000CA60704700ED00E00000FA0530B4154B80
:100F8000DB68C3F30223C3F10704042C28BF042445
:100F90001D1D062D14D9033B4FF0FF3505FA04F44F
:100FA00021EA0401994005FA03F322EA03031943F5
:100FB000002807DB0901C9B2074B195430BC704740
:100FC0000023E9E700F00F000901C9B2034B1954EF
:100FD000F4E700BF00ED00E000E400E014ED00E005
:100FE0000138B0F1807F0AD2064B5860064AF021E2
:100FF00082F823100020986007221A6070470120B1
:10100000704700BF10E000E000ED00E0042805D0CC
:10101000054A136823F0040313607047024A1368FB
:1010200043F004031360704710E000E008B501F0DE
:1010300059FB08BD00230F2B00F2E280F0B482B010
:1010400039E0092200E00022B2403A4302346D4EFA
:1010500046F824206C4A1468EA4302EA04064F6802
:1010600017F4803F01D045EA0406674C26606468A7
:1010700002EA04064F6817F4003F01D045EA04066F
:10108000614C6660A46802EA04064F6817F4801F8A
:1010900001D045EA04065C4CA660E46822404E6834
:1010A00016F4001F01D045EA0402574CE2600133F8
:1010B0000F2B00F2A28001229A400C6804EA02057C
:1010C000AA42F4D14C68122C18BF022C10D1DE08B1
:1010D000083650F826C003F00704A7000F24BC40D0
:1010E0002CEA040C0C69BC4044EA0C0440F826408D
:1010F00004685F000326BE40F64306EA040C4C6811
:1011000004F00304BC4044EA0C0404604C6804F19D
:10111000FF3C112C18BFBCF1010F01D9122C11D1C9
:10112000846806EA040CCC68BC4044EA0C04846081
:10113000446824EA020C4C68C4F300129A4042EA64
:101140000C024260C26816408A68BA403243C260EC
:101150004A6812F0805FAAD02C4A546C44F4804450
:101160005464526C02F480420192019A9C08A61CBD
:10117000244A52F8267003F0030296000F22B24070
:1011800027EA0207224A90423FF45DAF02F58062EF
:10119000904222D002F58062904220D002F5806217
:1011A00090421ED002F5806290421CD002F580620F
:1011B00090421AD002F58062904218D002F5806207
:1011C000904216D002F58062904214D002F58062FF
:1011D00090423FF436AF0A2236E7012234E702227A
:1011E00032E7032230E704222EE705222CE706220D
:1011F0002AE7072228E7082226E702B0F0BC70475A
:10120000704700BF00380140003C014000380240F8
:101210000000024012B90904816170478161704782
:1012200003689A6912F0020F01D000229A620368E3
:101230009A6912F0010F03D19A6942F001029A6192
:10124000704770B4039E05686868740D04F4806488
:1012500044F07F7444F4583444F47F7444F003043D
:1012600020EA0400C1F3090141EA02411943314374
:101270000143696070BC704770B504460D46164660
:1012800003689B6913F0100F17D023689A6912F056
:10129000200F14D1B5F1FF3FF7D025B1FFF742FE83
:1012A000801BA842F1D9202384F84130002384F820
:1012B000423084F8403003201EE000201CE0102261
:1012C000DA6123682025DD612046FFF7A9FF226847
:1012D000536823F0FF7323F48B3323F4FF7323F05D
:1012E000010353600423636484F84150002384F8AD
:1012F000423084F84030012070BD70B504460D4680
:10130000164623689B6913F0020F1CD1324629460A
:101310002046FFF7B1FFC0B9B5F1FF3FF1D025B1CD
:10132000FFF700FE801BA842EBD9636C43F020035B
:101330006364202384F84130002384F8423084F829
:101340004030032000E0002070BD0120FCE7F8B52C
:1013500005460F4616461C462B689B6937EA030371
:101360000CBF01230023B34213D1B4F1FF3FF3D0EC
:101370002CB1FFF7D7FD069BC01AA042ECD9202361
:1013800085F84130002385F8423085F8403003204D
:1013900000E00020F8BD70B505460C4616462B68E7
:1013A0009B6913F0200F19D1324621462846FFF7DA
:1013B00063FFA8B924B1FFF7B5FD801BA042EED9A9
:1013C0006B6C43F020036B64202385F841300023CD
:1013D00085F8423085F84030032070BD0020FCE7DE
:1013E0000120FAE770B504460D46164623689B694E
:1013F00013F0040F3DD1324629462046FFF73CFF4B
:101400000146002837D123689A6912F0200F12D1C3
:1014100025B1FFF787FD801BA842E7D9636C43F035
:1014200020036364202384F84130002384F8403093
:101430000321084670BD9A6912F0040F02D0228D74
:10144000002AF6D12022DA6121684B6823F0FF736D
:1014500023F48B3323F4FF7323F001034B60002349
:10146000636484F8412084F8423084F840300121DC
:10147000DFE70021DDE70121DBE70000002857D08E
:1014800010B5044690F84130002B41D0242384F855
:1014900041302268136823F00103136063682268F7
:1014A00023F0706313612268936823F40043936010
:1014B000E368012B31D0A368226843F404439360AE
:1014C000E368022B2FD0226851681A4B0B435360FC
:1014D0002268D36823F40043D3602369626913430D
:1014E000A169226843EA0123D360E369216A226883
:1014F0000B4313602268136843F00103136000205C
:101500006064202384F84130206384F8420010BDD9
:1015100080F8403001F05CFCB8E7A368226843F42F
:1015200000439360CCE723684FF400625A60CAE737
:1015300001207047008000022DE9F04383B090F84D
:101540004150EDB2202D40F0AD8090F84040012C8C
:1015500000F0AD80984617460E4604464FF001094C
:1015600080F84090FFF7DEFC0546009019234A46BC
:101570004FF400412046FFF7EAFE002840F0998032
:10158000212384F84130102384F84230002363641F
:101590006762A4F82A806363638D9BB2FF2B0AD92C
:1015A000FF222285474B00934FF08073314620463F
:1015B000FFF747FE1DE0628D92B22285414B0093FA
:1015C0004FF00073D2B231462046FFF73AFE10E0EA
:1015D000636C042B6FD1012365E0628D92B222858A
:1015E000002300934FF00073D2B231462046FFF73C
:1015F00028FE638D9BB2002B32D02A460A992046E2
:10160000FFF77BFE0028E3D1636A5A1C62622268FE
:101610001B789362638D013B9BB26385238D013BF5
:101620009BB22385002BE4D1638D9BB2002BE0D0CD
:1016300000950A9B002280212046FFF788FE0028A3
:101640003BD1638D9BB2FF2BC7D9FF22228500239C
:1016500000934FF0807331462046FFF7F2FDC8E754
:101660002A460A992046FFF796FE034620B1636C8E
:10167000042B24D1012316E022682021D1612068A7
:10168000426822F0FF7222F48B3222F4FF7222F0C1
:101690000102426084F84110002284F8422084F85C
:1016A000402000E00223184603B0BDE8F083022387
:1016B000F9E70323F7E70323F5E70323F3E703231E
:1016C000F1E700BF002000802DE9F04383B090F8DF
:1016D0004150EDB2202D40F0AD8090F84040012CFB
:1016E00000F0AD80984617460E4604464FF00109BB
:1016F00080F84090FFF716FC0546009019234A46F3
:101700004FF400412046FFF722FE002840F0998068
:10171000222384F84130102384F84230002363648C
:101720006762A4F82A806363638D9BB2FF2B0AD99A
:10173000FF222285474B00934FF0807331462046AD
:10174000FFF77FFD1DE0628D92B22285414B009331
:101750004FF00073D2B231462046FFF772FD10E021
:10176000636C042B6FD1012365E0628D92B22285F8
:10177000002300934FF00073D2B231462046FFF7AA
:1017800060FD638D9BB2002B32D02A460A99204619
:10179000FFF728FE0028E3D123685A6A636A591CC0
:1017A00061621A70238D013B9BB22385628D013AE1
:1017B00092B26285002BE4D1638D9BB2002BE0D006
:1017C00000950A9B002280212046FFF7C0FD0028DB
:1017D0003BD1638D9BB2FF2BC7D9FF22228500230B
:1017E00000934FF0807331462046FFF72AFDC8E78B
:1017F0002A460A992046FFF7CEFD034620B1636CC6
:10180000042B24D1012316E022682021D161206815
:10181000426822F0FF7222F48B3222F4FF7222F02F
:101820000102426084F84110002284F8422084F8CA
:10183000402000E00223184603B0BDE8F0830223F5
:10184000F9E70323F7E70323F5E70323F3E703238C
:10185000F1E700BF0024008090F84130DBB2202B7C
:1018600024D190F84030012B22D0012380F8403061
:10187000242380F841300268136823F001031360C9
:101880000268136823F480531360026813681943D5
:1018900011600268136843F001031360202380F88D
:1018A0004130002380F840301846704702207047CE
:1018B0000220704790F84130DBB2202B22D190F803
:1018C0004030012B20D0012380F84030242380F8C1
:1018D00041300268136823F0010313600268136843
:1018E00023F4706343EA012111600268136843F036
:1018F00001031360202380F84130002380F840303A
:1019000018467047022070470220704710B582B019
:101910001B4B1A6C42F080521A641B6C03F080530C
:101920000193019B174A136843F480331360FFF758
:10193000F9FA0446134B5B6813F4803F08D1FFF7B4
:10194000F1FA001BB0F57A7FF4D9032002B010BD84
:101950000C4A136843F400331360FFF7E3FA0446BC
:10196000084B5B6813F4003F07D1FFF7DBFA001B5D
:10197000B0F57A7FF4D90320E8E70020E6E700BF5E
:101980000038024000700040002800F0DB8170B594
:1019900082B00446036813F0010F29D0A24B9B6864
:1019A00003F00C03042B1AD09F4B9B6803F00C032D
:1019B000082B0FD06368B3F5803F40D0002B54D183
:1019C000994B1A6822F480321A601A6822F4802235
:1019D0001A6039E0944B5B6813F4800FEAD0924BA5
:1019E0001B6813F4003F03D06368002B00F0AC8148
:1019F000236813F0020F75D08B4B9B6813F00C0F0C
:101A00005ED0894B9B6803F00C03082B53D0E3682E
:101A1000002B00F08A80844A136843F001031360AE
:101A2000FFF780FA0546804B1B6813F0020F73D155
:101A3000FFF778FA401B0228F5D9032087E17A4A9C
:101A4000136843F48033136063682BB3FFF76AFABB
:101A50000546754B1B6813F4003FC9D1FFF762FAC6
:101A6000401B6428F5D9032071E1B3F5A02F09D0FC
:101A70006D4B1A6822F480321A601A6822F48022B0
:101A80001A60E1E7684B1A6842F480221A601A680B
:101A900042F480321A60D7E7FFF744FA0546624BFA
:101AA0001B6813F4003FA3D0FFF73CFA401B6428E7
:101AB000F5D903204BE15C4B5B6813F4800FA6D192
:101AC000594B1B6813F0020F04D0E368012B01D0BF
:101AD00001203CE1544A136823F0F803216943EAEA
:101AE000C1031360236813F0080F46D0636983B302
:101AF0004D4A536F43F001035367FFF713FA05464E
:101B0000494B5B6F13F0020F37D1FFF70BFA401B05
:101B10000228F5D903201AE1434A136823F0F80399
:101B2000216943EAC1031360DCE73F4A136823F0ED
:101B300001031360FFF7F6F905463B4B1B6813F0F2
:101B4000020FCFD0FFF7EEF9401B0228F5D9032092
:101B5000FDE0354A536F23F001035367FFF7E2F9C5
:101B60000546314B5B6F13F0020F06D0FFF7DAF931
:101B7000401B0228F5D90320E9E0236813F0040F85
:101B80007ED0294B1B6C13F0805F1ED1264B1A6C44
:101B900042F080521A641B6C03F080530193019B46
:101BA0000125224B1B6813F4807F10D0A368012B02
:101BB00021D0002B3CD11C4B1A6F22F001021A6776
:101BC0001A6F22F004021A671AE00025E9E7174AA3
:101BD000136843F480731360FFF7A4F90646134BB0
:101BE0001B6813F4807FE1D1FFF79CF9801B642808
:101BF000F5D90320ABE00C4A136F43F001031367E0
:101C0000A3685BB3FFF78EF90646074B1B6F13F013
:101C1000020F34D1FFF786F9801B41F288339842D6
:101C2000F3D9032093E000BF003802400070004069
:101C3000052B09D0484B1A6F22F001021A671A6F60
:101C400022F004021A67DBE7434B1A6F42F00402EA
:101C50001A671A6F42F001021A67D1E7FFF762F9BB
:101C600006463D4B1B6F13F0020F08D0FFF75AF9E1
:101C7000801B41F288339842F3D9032067E0F5B91D
:101C8000A369002B62D0344A926802F00C02082A41
:101C90005FD0022B19D0304A136823F08073136091
:101CA000FFF740F904462C4B1B6813F0007F47D028
:101CB000FFF738F9001B0228F5D9032047E0264A30
:101CC000136C23F080531364DAE7234A136823F07C
:101CD00080731360FFF726F905461F4B1B6813F04E
:101CE000007F06D0FFF71EF9401B0228F5D903201C
:101CF0002DE0E369226A1343626A43EA8213A26A0F
:101D00005208013A43EA0243E26A43EA026343F0BB
:101D10000053114A5360136843F080731360FFF758
:101D200001F904460C4B1B6813F0007F06D1FFF746
:101D3000F9F8001B0228F5D9032008E0002006E08E
:101D4000002004E001207047012000E0002002B0E4
:101D500070BD0120FBE700BF00380240264B9B68A6
:101D600003F00C03042B44D0082B01D02348704708
:101D70002DE9F04B204B5A6802F03F025B6813F4E8
:101D8000800F13D01C4B5968C1F3881100231C48E5
:101D9000A1FB0001FEF720FC174B5B68C3F3014376
:101DA00001335B00B0FBF3F0BDE8F08B124B5B68D6
:101DB000C3F388131E4600275C010025E41A65EB77
:101DC0000705A90141EA9461A001001B61EB05012F
:101DD000CB0043EA5073C400A01943EB07018B0208
:101DE00043EA90538402204619460023FEF7F4FB91
:101DF000D2E70348704700BF003802400024F400D7
:101E000040787D01002800F0A28070B50446524B56
:101E10001B6803F00F038B420CD24F4A136823F068
:101E20000F030B431360136803F00F038B4201D0C1
:101E3000012070BD236813F0020F17D013F0040FB8
:101E400004D0464A936843F4E0539360236813F048
:101E5000080F04D0414A936843F4604393603F4ABB
:101E6000936823F0F003A068034393600D46236852
:101E700013F0010F31D06368012B20D0022B25D045
:101E8000364A126812F0020F63D034498A6822F091
:101E9000030213438B60FFF745F806462F4B9B6800
:101EA00003F00C036268B3EB820F16D0FFF73AF829
:101EB000801B41F288339842F0D90320B9E7274AC2
:101EC000126812F4003FE0D10120B2E7234A126801
:101ED00012F0007FD9D10120ABE71F4B1B6803F044
:101EE0000F03AB420CD91C4A136823F00F032B439A
:101EF0001360136803F00F03AB4201D0012098E791
:101F0000236813F0040F06D0144A936823F4E053B7
:101F1000E1680B439360236813F0080F07D00F4A62
:101F2000936823F46043216943EAC1039360FFF798
:101F300015FF0A4B9B68C3F30313094AD35CD840CF
:101F4000084B18600020FEF7B1FF002071E7012068
:101F5000704701206DE700BF003C0240003802409E
:101F60003419010808000020014B1868704700BFB1
:101F700008000020F0B583B00446036813F0010F99
:101F80000CD0AF4B9A6822F400029A609A68416BB9
:101F90000A439A60436BC3B1002600E00026236821
:101FA00013F4002F15D0A64AD2F88C3023F4401336
:101FB000E16B0B43C2F88C30E36BB3F5801F06D0A6
:101FC000002B00F01B81002504E00126E7E7012635
:101FD000F6E70025236813F4801F0FD0984AD2F843
:101FE0008C3023F44003216C0B43C2F88C30236CFB
:101FF000B3F5800F00F0048103B90125236813F0C5
:10200000807F00D0012613F0200F40F0FB80236872
:1020100013F0100F0CD08A4BD3F88C2022F0807272
:10202000C3F88C20D3F88C20A16B0A43C3F88C2012
:10203000236813F4804F08D0814AD2F8903023F4FB
:102040004033616E0B43C2F89030236813F4004FA5
:1020500008D07B4AD2F8903023F44023A16E0B4382
:10206000C2F89030236813F4803F08D0744AD2F845
:10207000903023F44013E16E0B43C2F89030236894
:1020800013F4003F08D06E4AD2F8903023F4400396
:10209000216F0B43C2F89030236813F0400F08D033
:1020A000674AD2F8903023F00303616C0B43C2F807
:1020B0009030236813F0800F08D0614AD2F8903036
:1020C00023F00C03A16C0B43C2F89030236813F487
:1020D000807F08D05A4AD2F8903023F03003E16C68
:1020E0000B43C2F89030236813F4007F08D0544AA1
:1020F000D2F8903023F0C003216D0B43C2F890302A
:10210000236813F4806F08D04D4AD2F8903023F43E
:102110004073616D0B43C2F89030236813F4006F75
:1021200008D0474AD2F8903023F44063A16D0B43A6
:10213000C2F89030236813F4805F08D0404AD2F888
:10214000903023F44053E16D0B43C2F89030236884
:1021500013F4005F08D03A4AD2F8903023F4404399
:10216000216E0B43C2F89030236813F4800F08D01F
:10217000334AD2F8903023F08063A16F0B43C2F84A
:102180009030236813F4001F0DD02D4AD2F8903000
:1021900023F00063E16F0B43C2F89030E36FB3F1BB
:1021A000006F00F09980236813F0080F00D001251C
:1021B00013F4802F08D0224AD2F8903023F04073D5
:1021C000616F0B43C2F89030236813F4000F09D0FD
:1021D0001B4AD2F8903023F08053D4F880100B4380
:1021E000C2F89030002E79D12368B3F1007F75D00A
:1021F000002D40F00681002003B0F0BD0125E9E686
:102200000126F9E60E4B1A6C42F080521A641B6CE0
:1022100003F080530193019B0A4A136843F48073CF
:102220001360FEF77FFE0746064B1B6813F4807FA2
:102230000AD1FEF777FEC01B6428F5D90320DBE73F
:102240000038024000700040B34B1B6F13F4407322
:1022500015D0226B02F440729A4210D0AE4B1A6F26
:1022600022F44072196F41F480311967196F21F41B
:10227000803119671A671B6F13F0010F12D1236B9E
:1022800003F44072B2F5407F1DD0A34A936823F453
:10229000F8139360A0490B6F226BC2F30B02134338
:1022A0000B67B4E6FEF73EFE07469B4B1B6F13F031
:1022B000020FE4D1FEF736FEC01B41F2883398428C
:1022C000F3D9032098E79448826822F4F8129349DE
:1022D00019400A438260DDE7012564E78E4A1368EE
:1022E00023F080631360FEF71DFE06468A4B1B68D1
:1022F00013F0006F06D0FEF715FE801B6428F5D999
:10230000032079E7236813F0010F13D0636B8BB9B7
:10231000814AD2F88430D2F88410606803F44033E4
:1023200043EA801301F070610B43A16843EA017333
:10233000C2F88430236813F4002F03D0E26BB2F5A7
:10234000801F06D013F4801F1ED0236CB3F5800FBE
:102350001AD1714AD2F88430D2F88410606803F43C
:10236000403343EA8013E06843EA006301F0E04150
:102370000B43C2F88430D2F88C3023F01F03616A1B
:1023800001390B43C2F88C30236813F0807F11D0E1
:10239000614AD2F88400D2F88410666823691B046D
:1023A00043EA861300F07060034301F0E0410B4301
:1023B000C2F88430236813F0007F0DD0626823696F
:1023C0001B0443EA8213E26843EA0263A26843EA19
:1023D0000273514AC2F884304F4A136843F0806355
:1023E0001360FEF79FFD06464B4B1B6813F0006F12
:1023F0007FF4FEAEFEF796FD801B6428F4D903201F
:10240000FAE6454A136823F080531360FEF78AFD0D
:102410000546414B1B6813F0005F06D0FEF782FDB6
:10242000401B6428F5D90320E6E6236813F4002F47
:1024300001D0E26B22B113F4801F1DD0236CDBB9F5
:10244000354AD2F88830D2F88810606903F44033F6
:1024500043EA8013A06943EA006301F0E0410B43C3
:10246000C2F88830D2F88C3023F4F853A16A0139CD
:1024700043EA0123C2F88C30236813F4001F03D011
:10248000E36FB3F1006F31D0236813F0080F19D058
:10249000214AD2F88810D2F88830606903F44033BA
:1024A00043EA801301F070610B43E16943EA017371
:1024B000C2F88830D2F88C3023F44033E16A0B4301
:1024C000C2F88C30144A136843F080531360FEF74F
:1024D00029FD0446104B1B6813F0005F19D1FEF76D
:1024E00021FD001B6428F5D9032085E60A4AD2F8AD
:1024F0008800D2F888106569236A1B0443EA8513B3
:1025000000F07060034301F0E0410B43C2F88830F3
:10251000BAE7002070E600BF00380240FFFCFF0F62
:1025200008B54FF4C83103480AF0A4F9024808F08E
:1025300057FE08BD4C02002024440108014B1868D6
:10254000704700BFCC950120044B1B681844034B17
:102550001B68C31A002BFADC704700BFCC95012022
:1025600070477047704708B5FEF794FC08BD08B582
:10257000FEF796FC08BD000030B5A3B000241D9402
:102580001E941F94209421946822214603A80EF0E3
:10259000C6FD234622461D491D4808F0B7FD0546E5
:1025A0004FF488724FF4F071204606F05FFB4FF451
:1025B00088724FF4F071204606F040FB1F941DA96D
:1025C000284606F0DAFA134B0B93134B0C93134B7C
:1025D0000E93134B134A03A9284606F0ECFA40F673
:1025E0007473009392234FF4F0722146204607F053
:1025F0005FFD40F6037300934FF487734FF48872C6
:102600002146012007F054FD23B030BD386F01088A
:10261000F06D0108810A0008D90A0008310B000892
:1026200081850008E57E0008012906D108B5FEF77E
:102630008BFAFEF7AFFB002008BD4FF0FF3070476C
:10264000F0B58BB0244B1A6B42F020021A631A6B60
:1026500002F020020192019A1A6B42F080021A6382
:102660001A6B02F080020292029A1A6B42F0400248
:102670001A631A6B02F040020392039A1A6B42F03B
:1026800002021A631B6B03F002030493049B134FB3
:1026900000224FF400413846FEF7BCFD104D0022E9
:1026A00018212846FEF7B6FD4FF400430593012696
:1026B000069600240794089405A93846FEF7BAFC4C
:1026C0001823059306960794089405A92846FEF753
:1026D000B1FC0BB0F0BD00BF003802400018024052
:1026E00000040240024A136801331360704700BFC0
:1026F000CC950120FEE7000008B51748174B036092
:10270000A3F1FE53A3F698434360002383600122A4
:10271000C260036143618361C3610362FEF7AEFE81
:1027200050B900210C48FFF797F850B900210A482A
:10273000FFF7C0F850B908BD4FF494710848FFF78F
:10274000D9FF40F22F110648FFF7D4FF4FF49B71D9
:102750000348FFF7CFFF00BFD4950120005400408D
:102760000843010808B51548154B0360154B436035
:10277000002383600122C260036143618361C361FE
:102780000362FEF77BFE50B900210C48FFF764F8A6
:1027900050B900210948FFF78DF850B908BD4FF432
:1027A000A5710948FFF7A6FF40F251110648FFF74F
:1027B000A1FF4FF4AC710448FFF79CFF2096012065
:1027C000005800405B3D30000843010800B5B5B03B
:1027D000364B1A6C42F080521A641B6C03F0805323
:1027E0000093009B324B1A6842F440421A601B6807
:1027F00003F440430193019B012328934FF480335A
:10280000299302232E934FF480022F9219223092A3
:102810004FF4D87231923293339328A8FFF7B4F86B
:1028200088BBFFF773F890BB0F23239302232493F5
:10283000002325934FF4A05326934FF480532793FE
:10284000072123A8FFF7DEFA28BB4FF44043029389
:1028500000231B931C9302A8FFF78CFB00BBFFF720
:1028600083FB144BA3FB00308009FEF7B9FB042067
:10287000FEF7CCFB002211464FF0FF30FEF77EFB47
:1028800035B05DF804FBED210B48FFF733FFF42171
:102890000948FFF72FFF4FF481710748FFF72AFF20
:1028A0004FF485710448FFF725FF00BF0038024050
:1028B00000700040D34D62100843010870B590B01D
:1028C000FEF718FBFFF782FFFFF7BAFEFFF714FFD2
:1028D000FFF748FFFEF75CF8584E6C4606F110050E
:1028E0000FCD0FC40FCD0FC40FCD0FC495E8070057
:1028F00084E8070096E80F00FEF7D2F9042002F002
:1029000021FC08F0DFFC08F0A3FC00F05BFB4C4B63
:10291000186000F069F9B0B94A4C4B4B1868206058
:102920009A889B79A280A37140F60401444B1868F1
:1029300002F0CBFD214600F0D6FD08F0D5F908F0F5
:10294000D3F900255EE03F4C404B186820609B881F
:10295000A38040F604013A4B186802F0B6FD214608
:1029600000F0C1FD08F0C0F9E9E7364A384B03CB67
:10297000106051601B881381012540F60401304B23
:10298000186802F0A2FD2F4900F0ADFD08F0ACF987
:1029900000F0AEF900F0D8F82E4B188095B32E4E0B
:1029A00002462E4930460EF0C3FB254C40F603018B
:1029B000206802F08AFD314601F066FF08F094F9C4
:1029C00040F60201206802F080FDFF22002100F0A5
:1029D000B7FE08F089F940F60201206802F075FDA3
:1029E0001C4B198800F0F0FF08F07EF940F6020158
:1029F000206802F06AFD4FF4FA620A2100F074FECA
:102A000008F072F9FEF70EFA07F0B0FB08F076F85E
:102A1000134C20600A2007F037FB226840F60103C0
:102A20009A42B5D1002DA0D0064C0E4B07CB2060AA
:102A30006160A2601B78237300259EE7D495012076
:102A4000D09501206C96012018430108204301080D
:102A500038430108969601208096012044430108DE
:102A60004C9201202843010830B585B004AA02F831
:102A7000010D0B4C64250095012398212046FEF79B
:102A80005BFD0095022303AA98212046FEF71CFE59
:102A90009DF80D009DF80C3043EA002005B030BDD4
:102AA0002096012030B585B004AA02F8010D0A4C29
:102AB00064250095012398212046FEF73DFD0095F1
:102AC00001230DF10E0298212046FEF7FDFD9DF831
:102AD0000E0005B030BD00BF2096012000B585B0C6
:102AE0008DF80C008DF80D1064230093022303AAC7
:102AF00098210348FEF720FD05B05DF804FB00BFF8
:102B00002096012000B585B08DF80C008DF80D10D1
:102B1000090A8DF80E1064230093032303AA982159
:102B20000248FEF709FD05B05DF804FB2096012080
:102B300000BF00BF00BF00BF00BF00BF00BF00BF9D
:102B400000BF00BF70470000014B1888704700BFEE
:102B50009696012010B590210420FFF7BFFF0024B6
:102B6000092C0BD80620FFF77FFF10F01F0F07D0AE
:102B70000A20FFF7DDFF0134E4B2F1E7002010BDC9
:102B80000120FCE710B591210420FFF7A7FF0024E6
:102B9000092C0CD80620FFF767FF00F01F00102853
:102BA00007D00A20FFF7C4FF0134E4B2F0E70020A9
:102BB00010BD0120FCE710B592210420FFF78EFF25
:102BC0000024092C0CD80620FFF74EFF00F01F0050
:102BD000182807D00A20FFF7ABFF0134E4B2F0E772
:102BE000002010BD0120FCE708B5FFF7B3FF034646
:102BF00008B9184608BD0020FFF754FF00F0F001A7
:102C000041F005010020FFF769FF0220FFF74AFFAE
:102C100001210220FFF762FF65211C20FFF75EFF04
:102C20004FF4A0611420FFF76DFFFFF7ABFF0346E1
:102C30000028DED04FF4C0611420FFF763FFFFF7D8
:102C4000BAFF03460028D4D04FF461410C20FFF7AF
:102C500059FF41F2FF010E20FFF754FF4FF4FA61D4
:102C60002020FFF74FFF45F208012220FFF74AFF1F
:102C70004AF241012420FFF745FF44F2D4512620B7
:102C8000FFF740FFFFF766FF03460028B1D0FFF7CC
:102C900061FF03460028ACD04FF4A0611420FFF779
:102CA00031FFFFF76FFF03460028A2D04FF4C06149
:102CB0001420FFF727FFFFF77EFF034699E710B5C3
:102CC00081210420FFF70AFF0024092C0BD80020E3
:102CD000FFF7E8FE10F0100F07D10A20FFF728FFDA
:102CE0000134E4B2F1E7002010BD0120FCE7000050
:102CF00010B5FFF7E4FFC0B10820FFF7B5FEC0F341
:102D00000E03ABB1C0F3413484B9C0F38A00094B60
:102D100018800A20FFF7A8FE00F00F02064B1A7079
:102D2000C0F30A10054B188000E00524204610BDB2
:102D30000424FBE7969601209496012098960120A2
:102D400000B583B0214B1A6C42F080521A641A6CA1
:102D500002F080520092009A5A6C42F480425A6407
:102D60005B6C03F480430193019B0320FEF7F4F8AE
:102D7000002211466FF00B00FEF700F90022114609
:102D80006FF00A00FEF7FAF8002211466FF0090012
:102D9000FEF7F4F8002211466FF00400FEF7EEF89B
:102DA000002211466FF00300FEF7E8F800221146FA
:102DB0006FF00100FEF7E2F8002211464FF0FF30FD
:102DC000FEF7DCF803B05DF804FB00BF00380240FA
:102DD00000B589B003681D4A934205D01C4A93424E
:102DE0001BD009B05DF804FBC023039312230493A6
:102DF00001230593032306930423079303A915488E
:102E0000FEF718F9144B1A6C42F400121A641B6C8A
:102E100003F400130193019BE3E7032303931222BE
:102E200004920122059206930423079303A90B48F9
:102E3000FEF700F9084B1A6C42F480021A641B6C0E
:102E400003F480030293029BCBE700BF00540040D1
:102E500000580040000402400038024000140240C4
:102E60007047FEE7FEE7FEE7FEE7704770477047F2
:102E700008B5FEF74BF8FEF7D9F808BD10B40F4AB5
:102E8000D2F8883043F47003C2F888300C4B1968CC
:102E900041F001011960002098601C680949214037
:102EA000196009495960196821F480211960D860B6
:102EB0004FF0006393605DF8044B704700ED00E055
:102EC00000380240FFFFF6FE1030002420B942F621
:102ED00092030B6001487047002070472C1A0108CC
:102EE00070B582B0044603681D2B04D0262B5CD03D
:102EF00003F028FC57E040F60101406802F0E5FAD3
:102F00002C4D294601F0DBFE40F60201606802F01C
:102F1000DCFA294900F002FC40F60301606802F087
:102F2000D4FA0646254901F0AFFC0E21304601F0E7
:102F300018FD40F60401606802F0C7FA0646204911
:102F400000F0D1FA0E21304600F0BAFA2946304698
:102F500000F0F2FA4FF47F01304600F09EFA40F69E
:102F60000501606802F0B1FA0646294600F0E4FA6D
:102F70000E21304600F0A4FA40F60601606802F027
:102F8000A4FA294600F0D8FA40F60701606802F07A
:102F90009CFA044601A90020FFF798FF019A014618
:102FA000204600F0E5FD02B070BD806802F04EFAE8
:102FB000F9E700BF08540108985B01084C43010879
:102FC0005043010800B583B002F084FA0023019356
:102FD00000930346034A0821034801F0D3FC03B0E1
:102FE0005DF804FBE12E00084C190108DFF834D02D
:102FF000002103E00C4B5B58435004310B480C4B51
:1030000042189A42F6D30B4A02E0002342F8043BEE
:10301000094B9A42F9D3FFF731FF0EF029F8FFF779
:103020004DFC704700000520347B010800000020A3
:10303000280200202802002044980120FEE72DE904
:10304000F74345680446284609F0EEFB02AF866B5D
:1030500047F8080DD0F83490D0F84080684609F061
:10306000F1FB23681F2B2FD006DC0F2B60D01E2B0B
:1030700015D00E2B69D14AE0222B63D02A2B02D027
:10308000202B62D125E0284609F0CEFBE3680090B2
:103090000BB1C36301E0C36BE360684634E0E468EE
:1030A000012C5BD1304602F068F900283CD0304654
:1030B00001F0FAFF304602F07BF900284ED030468E
:1030C000214600F0F9F849E02846214600F028F9A9
:1030D00044E0284609F0A8FBE46801909CB16068D0
:1030E000294601F09BFE30B92068294601F085FE93
:1030F00048B1226805E06068294601F07EFE10B103
:103100006268019B9A6301A809F09CFB26E0E368D2
:103110005A68002A19DD1B68092B05D00A2B14D127
:10312000284601F05FFF19E0284601F08BFF15E00B
:103130006FF07043984508D0404606F049FA08F011
:1031400087F802E0C4F80C8008E0B9F1000F02D063
:103150002046C84702E0204603F0F4FA03B0BDE879
:10316000F083000010B586B0089C0094099C01947F
:103170000F4C02940D9C1834039402F001FF044696
:1031800090B109F051FB0B990590102200F0C0F8A6
:1031900006A80C9950F8042D51630021916305494C
:1031A0000968116409F04EFB204606B010BD00BF4F
:1031B0003F3000080C000020F0B587B0B0F90C706B
:1031C000B0F90E60B0F91050B0F90AE00091418AF0
:1031D000019100210291B0F908100C9C0391049414
:1031E000846905940EEB0200F91832462B46FFF76E
:1031F000B9FF07B0F0BD37B50D4600F10801024632
:10320000C36A03C91C688DE803001046694601F0D3
:10321000E2FDB5F90020BDF9003022449A4217DCE6
:10322000B5F90420BDF90430121B9A4210DBB5F940
:103230000220BDF9023022449A4209DCB5F90600A9
:10324000BDF90630041B9C42ACBF0020012000E009
:10325000012003B030BDB0F9003070B5B0F90460A2
:103260001588D088948852884D80F31A9BB2181A1A
:103270009B1A08808B80CC8070BD38B504460D4603
:1032800002F0F5FDE36A284629461A68BDE8384091
:1032900006F041BA37B50C46054609F0C5FA428E2C
:1032A0000190944203D04486284602F028FE01A8EB
:1032B00009F0C8FA03B030BD37B50C46054678B101
:1032C00009F0B2FA428E019004EA02018C4204D065
:1032D00014434486284602F012FE01A809F0B2FA0F
:1032E00003B030BD37B50D46044670B109F09CFA05
:1032F000428E019022EA05018A4203D0418620468F
:1033000002F0FDFD01A809F09DFA03B030BD0000F8
:10331000024B42861B68C362018670471000002082
:10332000F0B50D4685B00646002800F0938009F000
:103330007BFA2B680290162B52D00CDC112B33D069
:1033400002DC0D2B3ED07EE0142B77D0152B7AD1EA
:10335000B0F9303070E01F2B6BD002DC1E2B42D056
:1033600071E0312B1ED0B3F5407F6CD1C36A196870
:10337000EB68C3621B6802A8CD1A09F063FA3046F5
:1033800009F052FA04AC694244F8040D0A462B468F
:10339000009501F0A6FC204609F054FA304602F0F0
:1033A000AEFD4EE000243FE0438ED9064BD5EB68DE
:1033B0001B7A002B47D002A809F044FA304601F0EE
:1033C00073FE40E0EB68DB68002B3CD01B7A002BDF
:1033D00039D002A809F036FA304602F0B9F830E0E8
:1033E000EB6803862DE0EB68418E012B08D1CA06FD
:1033F0000DD5304641F00101FFF74CFF082708E0EA
:1034000021F001013046FFF745FF092701E04FF0A9
:10341000FF3702A809F016FA7B1C4FF0000405D014
:103420003046394601F013FFEC600DE00123EB60FC
:103430000AE0438EC3F30013EB6002E0E968FFF794
:103440001CFF002400E00124029B23B102A809F024
:10345000F9F900E00124204605B0F0BD37B5054676
:103460000C4619B9684602F063F86C466B8E1B0770
:1034700005D5224628466946FFF7EDFE6C462846EC
:103480002146FFF7B8FE18B1EB6A20461B69984742
:1034900003B030BD0021FFF7E1BF37B50C4605464C
:1034A00060B109F0C1F9826B0190A24203D084633C
:1034B000284602F024FD01A809F0C4F903B030BD8C
:1034C00037B50D46044660B109F0AEF9024602A8D0
:1034D000A2F8485040F8042D09F0B4F9204602F053
:1034E0000EFD03B030BD37B50C46054600B309F0FC
:1034F0009BF9436C00906846019309F0A3F92146BB
:1035000001A806F0CDF8D0F1010438BF002484B939
:10351000284609F089F9019A416C0090914218BF40
:103520004264684609F08EF9284602F0E8FC00E0A3
:103530000124204603B030BD37B50C46054660B1C6
:1035400009F072F9426B0190A24203D0446328460D
:1035500002F0D5FC01A809F075F903B030BDF0B553
:1035600087B0B0F90C70B0F90E60B0F91050B0F936
:103570000AE0009102210191418A0291B0F90810FC
:10358000039144680494846905940EEB0200F918D1
:1035900032462B4600F066F807B0F0BD30B54568FE
:1035A000044685B028462146FFF7BAFE002856D0CB
:1035B00023680F2B1ED0B3F5107F0ED00B2B4BD1F1
:1035C000284609F031F904AD45F8080D443009F0FA
:1035D00083FB284609F036F93EE0E3682BB11B7AFD
:1035E000002B0CBF0221012100E00321284601F03D
:1035F0002EFE31E0284609F017F90090806B05F0A7
:10360000EFFF009B586B07F015F9284601F0AEFC60
:1036100028B9009BD86B05F0DBFF07F019FE009B73
:103620005B6CABB1022007F0FBF802A801F080FF51
:10363000009B586C09F0F8F8009B0190B3F9482002
:1036400093F8403002A907F0AFFB01A809F0FAF89F
:10365000684609F0F7F802E0204603F073F805B079
:1036600030BD000070B586B00A9D00950B9D0E9C84
:1036700045F0010501951A4D02950F9D20350395E2
:1036800002F07EFC054640B38CB12046FDF724F9DC
:10369000013009F043FB064650B109F0C5F8214658
:1036A00005900DF065FD05A809F0CCF800E0264670
:1036B000284609F0B9F80D9905900022FFF728FE79
:1036C000059C0C9BA4F84830064B66640FCB343441
:1036D00084E80F0005A809F0B5F8284606B070BDCB
:1036E0009D3500081400002073B50C4615460646AB
:1036F00090B109F099F8A54201900ADD826C9542DB
:1037000002D1426C944204D044648564304602F095
:10371000F6FB01A809F096F802B070BD37B50C466B
:10372000054658B109F080F8024602A8D46440F872
:10373000042D09F087F8284602F0E1FB03B030BD04
:1037400073B50C461546064668B109F06DF8012CB4
:10375000019005D800EB84043046256502F0CFFBCC
:1037600001A809F06FF802B070BDF0B587B0B0F9EC
:103770000C70B0F90E60B0F91050B0F90AE0009189
:1037800000210191418A0291B0F9081003918469E6
:1037900004940EEB0200F91832462B4600F0B6F8FE
:1037A00007B0F0BD37B54568044621462846FFF707
:1037B000B7FD10B323680B2B10D00F2B1AD128465E
:1037C00009F032F802AB43F8040D426E1468184653
:1037D00009F038F88CB12846A0470EE0284609F0D9
:1037E00023F802AD45F8040D383009F075FA284683
:1037F00009F028F8204602F0A5FF03B030BD13B54C
:1038000002AB426343F8041D416C806C521A64247D
:103810006243401A92FBF0F0194609F072FA019BDC
:103820005A1C019225221A70019B00221A7002B0C4
:1038300010BD806B08F0F8BF2DE9F041B0F9003001
:10384000B0F90470B0F90680FF1AB0F902300446EE
:103850001046C3EB08080D4607F0F0F9064607F0DE
:1038600005FAB4F84030E26A03F00303012B07F1D4
:10387000010708F10108126806D0022B09D1BF1B0D
:1038800097FBF3F32B8005E0D2431744BF1B2F8037
:1038900000E02A80A28F2B88E18F1A44C0EB080831
:1038A000022398FBF3F392B20B449BB22A800138B7
:1038B000013A6B8016440344AE80EB80BDE8F08192
:1038C00070B590F86830C26A13F0010615BFB0F900
:1038D0000230B0F90030B0F90650B0F90450146865
:1038E000826CED1A436C01359942B8BF194691427A
:1038F000A8BF1146A5EB44050EB1511A00E0C91A44
:103900006943D31A91FBF3F0204470BD2DE9F043D5
:1039100087B00E9C00940F9C0194274C0294129C3B
:103920004034039402F02CFB0746002840D00520C9
:1039300009F0F4F9804600283AD0384608F074FFC0
:10394000002211990490DFF87C901C4DFFF7E0FCF9
:1039500038461B4909F0A0FA049ED9F80030736676
:103960000FCD06F14C040FC495E80300022384E850
:103970000300A6F840306423B3640024109B86F84B
:1039800068307464C6F83880404608F04DFF22461F
:10399000014605900498FFF732FF05A808F052FF92
:1039A00004A808F04FFFD9F8003038465B68984704
:1039B000384607B0BDE8F083A5370008280000208E
:1039C000846F0108240000202DE9F0430D4687B0E4
:1039D0008046002800F0A08008F026FF436C466B6C
:1039E0009D42B8BF1D46836C06AF9D42A8BF1D46D1
:1039F000AE42044647F8180D00F08B8090F86890AE
:103A000019F0010F1CD0B54207DA2946FFF758FF1D
:103A10003146ADF80E00204606E03146FFF750FF74
:103A20002946ADF80E002046FFF74AFF0023ADF807
:103A3000083040F6FF73ADF80A00ADF80C3063E0D3
:103A4000B54207DA2946FFF73BFF3146ADF80800DB
:103A5000204606E03146FFF733FF2946ADF808005F
:103A60002046FFF72DFF0023ADF80A3009F00202CF
:103A700040F6FF73ADF80E30ADF80C0002F0FF0316
:103A8000002A41D1A06B0493059308F0FBFE0428A3
:103A90000EDC009B9C6B684608F0D4FE2046052196
:103AA00006F071FF0446404608F0BEFE00908463B5
:103AB0000098FFF7BEFE019038B3009BD86C06F06B
:103AC000B9FE04A90646019A0098FFF7B5FE02A8C0
:103AD00004AA06AC014607F04DF89DE803002A460B
:103AE000FFF78DFE54F8142D009804A9FFF7A4FEEB
:103AF00002A8014604AA07F03DF8304606F09AFEF7
:103B0000204608F09FFE00E06563404602A902F0EF
:103B1000BAF9684608F096FE07B0BDE8F08373B5C1
:103B20000D46164608F080FE02AB846B43F8040D88
:103B3000184608F087FE204608F0DEFA2860204686
:103B400008F0FEFA306002B070BD73B50D46144641
:103B500008F06AFE02AB866B43F8040D184608F0C5
:103B600071FE30462946224608F050FD02B070BD75
:103B700073B50D4616460446C8B1C1B1BAB108F0D6
:103B800053FE03460B4ADA6302A80B4A40F8043D91
:103B90009D63DE645A6408F055FE2046002100F063
:103BA00086F8204600F09EF9204602F0A8F902B0FF
:103BB00070BD00BF4B3B00081F3B000873B50646B5
:103BC00008F032FE024602A8556C40F8042DD46B72
:103BD00008F038FE25B11CB1002130460A46A04746
:103BE00002B070BD2DE9F04F85B0804608F01CFE94
:103BF000019001F0EBFB8146019801F0EEFB82465B
:103C000004A850F80C3D5D6CDF6BD3F834B0D3F8EA
:103C1000844008F017FE002D46D0002F44D04046C7
:103C200002A903AAA847029B002B3DD0039B002BAF
:103C30003AD044B1204602F093FF0546204602F0F8
:103C4000A5FF064601E0264625461BF0010F03D0DE
:103C5000002D01DB002E01DA002519E0002140468D
:103C60000A46B847029F4F4506DAE9192046324610
:103C700002F03AFE7F00F6E7039F574514DAF21987
:103C80002046294602F030FE7F00F6E7039B1D44E4
:103C9000554509DA00244C45F8DA214640462A46C3
:103CA000B847029B1C44F6E705B0BDE8F08F13B59A
:103CB0000C4608F0B9FD0190D0F8840003F01EFE18
:103CC000019B0022C3F884202CB9986D18B106F02E
:103CD00069F9019B9C6501A808F0B4FD02B010BD14
:103CE0002DE9F04F44688BB00546204608F09CFD56
:103CF0000AAFB0F800C047F8040D4288066CD0F84F
:103D000034B0D0F88480B0F80490B0F806A00592E2
:103D10003846CDF810C008F095FD20462946FFF73B
:103D2000FFFA059ADDF810C0002800F0CE802B685D
:103D30000B2B00F0C38004DC032B08D0052B55D0DF
:103D4000C0E00F2B55D0B3F5107F42D0BAE0B8F1E8
:103D5000000F00F0B7805E4ED5F80CB033685D4FB1
:103D60000BB13B685BB90592CDF810C005F010F8B7
:103D7000306005F015F8DDF810C0059A3860DBF802
:103D80000010002904DD0FFA8CF35B1A002B2DDBE9
:103D9000DBF80430002B03DD10B2C01A002825DB4D
:103DA000002906DA0FFA89F93068C1EB090181426E
:103DB0001CDC002B06DA0FFA8AFA3968C3EB0A0317
:103DC0008B4213DC40460FFA8CF112B202F088FEEF
:103DD00078E0EB682BB11B7A002B0CBF022101218C
:103DE00000E00321204601F032FA6BE02046012179
:103DF00066E0B8F1000F01D0404659E01BF0010F1A
:103E000059D01BF004030FFA8CF00FFA89F911B2A4
:103E100006930FFA8AFAC0EB09020DD00123009332
:103E20002D4B0193C1EB0A0A2C4B029301320AF18C
:103E3000010302F0D0FE05E0C1EB0A0301320133B9
:103E400003F0BAFD05462046002D35D008F0ECFC05
:103E5000DFF88C900990C0F88450384608F0F2FCE6
:103E6000D9F8003028469A89B3F808805F89B3F8FA
:103E70000EB0079203F0A8FD069B824633B14FF0C7
:103E80007F4006F003FD07F0E3F902E0284602F068
:103E9000ABFE2046B047504603F096FDD9F80030FF
:103EA000079AA3F808805F819A81A3F80EB028468C
:103EB00002F04AFD09E02046B04706E02046002116
:103EC000FFF7F5FE284602F03DFC0BB0BDE8F08F91
:103ED0005492012058920120DC430108506F0108E0
:103EE000D00000207FB5044608F09EFC024604A8DE
:103EF000566B40F80C2D556C08F0A4FCF30608D561
:103F0000204602A903AAA84720460299039A01F075
:103F100036F804B070BD0000F0B589B0109D0F9F59
:103F20000E9E15F0080F47F0010416D0304606A982
:103F300001F0FBFABDF91830BDF91C20BDF91E10C7
:103F4000D21ABDF91A3047F4F064CB1A00210132BD
:103F5000013344F00104084605E0002A08BF0122AD
:103F6000002B08BF012301940E4C0294129C009672
:103F70005C34039402F004F8044680B108F054FC69
:103F8000002211990590FFF7C3F9AA07059B4CBFC2
:103F9000054A064A5D631A6405A808F053FC2046EA
:103FA00009B0F0BDE13C0008E53B0008BD3B00085E
:103FB000F0B587B0B0F90C70B0F90E60B0F91050E0
:103FC000B0F90AE00091418A019144690294B0F984
:103FD00008100391846904940EEB0200F91832462C
:103FE0002B46FFF799FF07B0F0BDF0B587B0044648
:103FF000B0F90A00009100216569B4F90CE0B4F948
:104000000E70B4F910600191618A02910495B4F9BF
:104010000810A5690391059510440EEB03013A467B
:10402000334600F013FA054610B1618A00F099FC9E
:10403000284607B0F0BD00002DE9F04F8DB00023F9
:1040400005460E46009300F0CFFE0446284608F0D1
:10405000EBFB01902EB190F8562042F0040280F85C
:10406000562004F11E020DF1100850F8220005F050
:10407000AFFA019B03EB8404E06E05F0B1FA019CFA
:104080000023A06E029306F0D5FB20464146FFF7C1
:10409000F4F8606B10B108F0C7FB029098E80300D9
:1040A0000DF1180A8AE80300B4F86430BDF818204E
:1040B00002981A440132ADF81820BDF81C20013ACC
:1040C000D31A0DF1280BADF81C3051465A46236E19
:1040D00005F06EFC658E15F0010557D094F855502B
:1040E0000298002D08BF012505F0F0FB81460298DB
:1040F00000284BD00023039394F8543013B9236D58
:1041000023B31EB3E76C4F452ADA236DABB1A6B1DA
:104110000025E26C236D13449F420ADA39464A4671
:104120000023029805F03CFC07F0AEFB0137054484
:10413000EFE7002D08BF012512E039464A4603ABE0
:1041400005F02EFC07F0A0FB054609E04C4B1B6870
:10415000012B05D14B4BE26C1B68494698470390F5
:104160009BE8030008AB83E80300039B23B1BDF881
:1041700020305B1BADF820300298E16CBDF8207058
:104180004A4605F0F9FB3844ADF82000029B13B114
:1041900002A808F057FB019B586B10B108F044FBD4
:1041A0000090002002F0E8F840B9002E5CD0019B9E
:1041B0000021D3F8840000F06FFE55E0404600F087
:1041C000A9FE2EB10098414652465B4608F072FEA9
:1041D000019B5A8ED0073DD593F8563019072FD53D
:1041E000BDF82030013B2B440020ADF8243000F016
:1041F00091FE08A800F08EFE019B93F8562052070E
:1042000007D5586F06F044FB019BD3F8800006F0F9
:104210003DFBBDF92810BDF92A20009806F062FE8A
:10422000042006F011FB184BBDF922101B68B3F9EE
:104230002200BDF926304219013A06F019FD09E0C5
:10424000BDF92000BDF92210BDF926304219013A0E
:1042500006F0BCFC002000F05DFE16B10198FFF7EF
:1042600019F901F0C7FF9FE701A808F0EBFA009BDE
:1042700013B1684608F0E6FA0DB0BDE8F08F00BF54
:10428000F096012004970120D00000202DE9F34191
:104290000E46804608F0C8FA02AC478F456B44F8DA
:1042A000080D3744684608F0CDFA2846394606F02E
:1042B0006AFB0646A0B145B908F0B6FA024602A864
:1042C00040F8042D157008F0BDFA404608F0ACFA2D
:1042D000009047874663684608F0B4FA0120FFE77C
:1042E00002B0BDE8F0812DE9F3410D4606460021FC
:1042F000284690461F46ADF804108DF8061005F0CC
:1043000067FD4544ADB20446284605F061FD844290
:104310000CD1294601A805F053FD01A938462246D3
:104320000CF0D9FE3046052100F091FF02B0BDE847
:10433000F081F7B506460F4608F076FA0090406B1C
:1043400058B108F071FA02AC44F8040DFCF7C4FA55
:104350000546204608F076FA00E0054602A87C19DA
:1043600050F8082D528F0134A41A684608F06AFAF2
:10437000002C08DD304604F11001FFF787FF003004
:1043800018BF012000E0012003B0F0BDF7B50746DB
:1043900008F04AFA024602A8546B40F8082D684615
:1043A000D66C08F04FFA14B3204608F03DFA02AC80
:1043B0003146054644F8040D05F026FD064628461C
:1043C000FCF78AFA86420FD23544284605F0E8FC0D
:1043D000291828460CF0CCFE204608F033FA38465F
:1043E000052100F034FF02E0204608F02BFA03B06C
:1043F000F0BD13B50C4608F017FA0090406BF8B109
:1044000008F012FA019005F061FA009BB3F9381038
:1044100093F8542024EAE474002A0CBF0A464A1E8A
:104420009442A8BF1446DA6C8442B8BF2046824248
:104430004FF0000218BFD8641A6501A808F002FA0C
:10444000684608F0FFF902B010BD00002DE9F04108
:1044500086B00C9C00940D9CDDF8408044F48054A0
:104460000194214C0294119C6034039401F088FD66
:104470000746002834D008F0D7F91C4D0F99059055
:104480001022FEF745FF0FCD059E06F160040FC414
:104490000FCD0FC42B682360012386F8553018F127
:1044A000010318BF0123B8F1000FCCBF1FFA88F831
:1044B0004FF0080886F88830002373877363A6F8E6
:1044C000388005A808F0BEF90FFA88F138460131A6
:1044D000FFF7DCFE044618B9384601F0FBFD27461D
:1044E000384606B0BDE8F0818D4700084000002046
:1044F0002DE9F3410F46044600284FD008F094F907
:104500000190406B002846D008F08EF9019B009086
:10451000986E06F08FF98046204600F065FF05464C
:10452000009806F08BFB019B1A6E02F00302012A31
:10453000064607D0022A09D12D1A013595FBF2F55E
:104540007D1B09E05B6E451BDB4303E05D6EDB6AB0
:104550001B68ED43ED1A3D44009805F0B7F9002DB6
:10456000024602DA204600210AE0B54202DD20467A
:10457000114605E02946009805F008FA0146204654
:10458000FFF737FF684608F05DF9404606F052F93C
:10459000204601F0B4FC01A808F054F902B0BDE8CF
:1045A000F0812DE9FF470D460446002800F0EB801E
:1045B00008F03AF904AFD0F8589047F80C0D90F88D
:1045C00054A0D0F83480C66C384608F03BF9B9F1F5
:1045D000000F03D020462946C847D1E0122D00F035
:1045E000CB8005DC102D3DD009DC082D3DD05AE0F4
:1045F0001D2D45D01E2D3FD0132D54D115E0B8F1FF
:10460000000F00F0BD80404608F00EF904AD3146C1
:10461000074645F8040D05F0F7FB3E18304605F057
:10462000C7FB01220146204615E0B8F1000F00F05B
:10463000A780404608F0F8F804AD3146074645F833
:10464000040D05F0E1FB3E18304605F0B1FB4FF0DC
:10465000FF32014620463346FFF745FE284608F064
:10466000F1F88DE02046711E88E0002E00F0888071
:104670002046711EFFF7BDFE2046FFF787FE7FE054
:10468000204608F0D1F8BAF1010F019002D180F86C
:10469000549006E0012380F8543031462046FFF75D
:1046A000A8FE3846DBE71F2D6ADDBAF1000F02D005
:1046B0002046FFF76BFE204608F0B6F8B0F9383018
:1046C0000290002B074618DD406B60B108F0ACF893
:1046D0000DF1100848F8040D05F0F8F88146404641
:1046E00008F0B0F800E08146B7F93880C145ACBFAA
:1046F0004FF000084FF0010801E04FF0010804AF4F
:1047000057F8083D3846D3F84CA008F09BF8B8F1AC
:10471000000F35D01FFA85F8404605F059FB814659
:1047200049462046FFF705FE50B3204608F07CF8C6
:10473000456B0290384608F085F8284608F074F872
:1047400004AD5146074645F8040D05F05DFB0744EE
:104750003846FCF7C1F83946421C07EB09000CF05B
:10476000C5FC4146384605F02BFB284608F06AF8A0
:104770002046052100F06BFD2046711CFFF739FE35
:10478000204601F0BCFB04B0BDE8F08773B5446877
:104790000546204600F028FB294606462046FEF73F
:1047A000BFFD00286BD02B680F2B40D004DC0B2BF7
:1047B00042D00E2B4DD05FE040F21312934203D053
:1047C000B3F5107F21D057E0204601F0B9FB204619
:1047D00008F02AF802AE46F8040D90F8563083F03F
:1047E000040380F85630304608F02CF800212046AB
:1047F000FFF722FC204608F017F800210190D0F8BE
:10480000840000F049FB304620E0EB6853B11A7A8F
:1048100020462AB11968FFF76BFE2046012103E00C
:10482000022101E02046032100F011FD24E0204692
:104830000121FFF701FC22E0204607F0F5FF02AC62
:1048400044F8040D343008F047FA204607F0FAFF28
:1048500012E08EB1EB685A68002A0DDD1968A1F1EB
:104860000903192B04D801229A40064B13401BB9A7
:104870002046FFF796FE02E0284601F063FF02B0F3
:1048800070BD00BF130004032DE9F7430C46064634
:10489000002863D007F0C8FF02AD476B45F8080D4C
:1048A000B0F83880684607F0CDFF002C46D06FB1D5
:1048B000384607F0B9FF02AF47F8040DFCF70CF8D3
:1048C00000F10109384607F0BDFF00E0B946204677
:1048D00004F0FCFF0FFA88F7B842B8BF0746394624
:1048E000204605F091FA00F10108C9EB08013046B5
:1048F000FFF71FFD00282ED0304607F095FF0090EF
:10490000406B07F091FF4246214601900CF0E3FB1B
:10491000019B4344002203F8012C009BB3F938208B
:10492000DF64974206D193F85420012A04BF07F1AF
:10493000FF37DF6401A807F085FF09E0304607F084
:1049400073FF0090343008F0C7F9009B5C87DC648B
:10495000684607F077FF304601F0D1FA03B0BDE8B2
:10496000F08337B50C46054650B107F05DFF019066
:1049700018B10466284601F0C2FA01A807F062FFE8
:1049800003B030BD2DE9F7430646884614461D4660
:1049900013B900F09FFD05460094304634680A9A2A
:1049A0000B9B2946A0470446002839D000F09EFD05
:1049B000718A07462046FEF77FFC204600F095FAF4
:1049C000384608F1FF3800F090FAB8F1000F0FDD1B
:1049D00056F81CCF00220092304639461346E04775
:1049E00081460028EDD1204601F074FB484618E0CE
:1049F00038461D2100F0AEFB6B1C11D000F036FDD7
:104A000050B107F007FF8069A0420AD00028F8D112
:104A1000204600F017FB03E0A542F9D1284600E04C
:104A2000204603B0BDE8F083F0B587B00446B0F986
:104A30000A0000910021B4F90CE0B4F90E70B4F949
:104A400010600191618AA5690291B4F9081003917F
:104A500004950EEB0301104433463A4600F0CEF8BD
:104A60006168054600F002F9284607B0F0BD37B589
:104A70004FF480710446FEF71FFC204607F0D4FE79
:104A800002AB856A43F8040D184607F0DBFEAB075E
:104A900003D52046012100F0DAFB03B030BDF7B5A5
:104AA00005460C464FF48071FEF71CFC284607F0C3
:104AB000BBFE024602A8966A40F8042D178E07F046
:104AC000C1FE022C02D1384606F020F8B30703D508
:104AD0002846214600F0BBFB03B0F0BD73B50D4680
:104AE000044607F0A1FE02AB468E43F8040D1846BB
:104AF00007F0A8FEEA6862B1127A06F4807322B168
:104B00005BB92046FFF7B3FF07E033B1204602212F
:104B100001E020460321FFF7C2FF02B070BD000094
:104B200037B54468054629462046FEF7F9FB0028BC
:104B30005DD02B680F2B16D004DC0B2B23D00E2B53
:104B400033D051E0282B48D0B3F5107F05D0112B7E
:104B50004AD1284B1B6813B949E0274B1B682046F4
:104B60002946984743E0204607F05EFE02AB43F833
:104B7000040D426E1568184607F064FE002D36D00D
:104B80002046A84733E0204607F04EFE02AC0190D5
:104B9000683008F0A1F854F8040D03216C3008F0D7
:104BA000A3F8204607F04EFE1EE0EA680CCA0D2A64
:104BB00002D0202A07D010E0002B0EDD2046FFF7A0
:104BC00056FF204605E0002B204602DDFFF74FFF91
:104BD0000DE00221FFF763FF09E0EB6823B92046EF
:104BE0004FF48071FEF77EFB284601F0ABFD03B069
:104BF00030BD00BF5C92012064000020F0B587B09A
:104C00000C9C00940D9C0194154C0294109C4C3407
:104C1000039401F0B5F90746F8B107F005FE114D10
:104C20000F9905901022FEF773FB06AE0FCD56F8D4
:104C300004ED0EF134040FC40FCD0FC495E80F003E
:104C400084E80F00084C2368CEF86430304607F043
:104C5000F9FD236838465B689847384607B0F0BDD1
:104C6000214B0008680000209800002073B50C4616
:104C7000054600B307F0D8FD866E009068460196A1
:104C800007F0E0FD214601A804F00AFDD0F101047F
:104C900038BF002484B9019BB34208D0284607F0EE
:104CA000C3FD019B00908366684607F0CBFD284654
:104CB00001F025F900E00124204602B070BD37B5AF
:104CC0000C46054658B107F0AFFD024602A85465F0
:104CD00040F8042D07F0B6FD284601F010F903B0A6
:104CE00030BD2DE9F04F87B0C46903938A469346DF
:104CF000002C6DD0204607F097FD816A059001F4E5
:104D00002073802BB0F8008042888688C58808D040
:104D1000B3F5207F08D108EB0A091FFA89F9039B34
:104D200008E0039883B201E01FFA8AF303EB080955
:104D30001FFA89F901F4A0613344B1F5807F9BB279
:104D400008D0B1F5A06F08D102EB0B0C1FFA8CFC58
:104D5000109F08E010998FB201E01FFA8BF707EB64
:104D6000020C1FFA8CFC0FFA89F90FFA88F812B2BC
:104D70002F440FFA8CFCB9EB08010292BFB2C2EBD0
:104D80000C0200D142B120460193CDF800C000F0E2
:104D9000F2FADDF800C0019B1BB2C9EB030936B281
:104DA000029BC6EB08083FB22DB2CCEB070C5D1B93
:104DB00019EB08010CEB050200D112B1204600F0FE
:104DC000CBF906A850F8043D1C6A07F03BFD8FE7BD
:104DD00007B0BDE8F08FB0F90030B0F90220084606
:104DE0005242594205F0B6BE08B507F013FD806A7D
:104DF00080F01000C0F3001008BD10B50C4608B9D3
:104E0000002010BD0029FBD007F004FD8069A042FE
:104E100002D00028F8D1F3E7012010BD884201D06C
:104E2000FFF7EBBF0120704737B5054668B107F0C3
:104E3000FBFC02AC44F8040D006805F0B3F8204612
:104E400007F000FD284607F029FD03B030BD73B51B
:104E5000054601A805F072F80446DCB120460121A0
:104E600005F0FBF8019B83B178B1184607F0D2FC3E
:104E70004368AB4209D1204601A9019E05F076F8AE
:104E800004463046FFF7D0FFE7E7204601A905F0CA
:104E90006DF8E1E702B070BD13B50C4680B107F0C4
:104EA000C3FC01901CB10068214605F0AFF802ACCC
:104EB00054F8043D186805F0B7F8204607F0C2FC26
:104EC00002B010BD10B5044670B101F018F82046CC
:104ED00000F0D6FA04463CB12046FFF7F3FF204627
:104EE00007F098FC046AF6E710BD13B5044670B1EC
:104EF00007F09AFC826A0190930705D442F00202FF
:104F000082622046FFF7DEFF01A807F09BFC02B09B
:104F100010BD0000044B10B51B685C6C586400F0B9
:104F200047FE204610BD00BFD000002013B5044648
:104F3000B8B107F079FC836A0190DB070ED42046F4
:104F400008F0DAFB019B9A6A42F001029A62064B72
:104F50001A68204601321A6000F0D1FF01A807F05C
:104F600071FC02B010BD00BFEC96012008B528B15D
:104F700007F050FC806A00F0010008BD08BD2DE973
:104F8000E7410E4690460746D0B107F04DFC034678
:104F900002A8B3F90410B3F90020B3F9065040F8A1
:104FA000043DB3F902308A1AED1AD243ED43164498
:104FB000454407F047FC384631462A4600F0CCF815
:104FC00003B0BDE8E08110B5044618B9204608F0EA
:104FD0006AFB03E008F054FB0028F7D0A04208BFAA
:104FE000002010BD38B50446B0B108F069FBFFF7EA
:104FF000EAFF05460446204600F0C1F930B92CB15D
:105000002046FFF7E0FFA8420446F4D1204600F016
:105010004BF8002818BF0024204638BD38B5054697
:105020000C4621B9284607F0F5FBC06905E00846A3
:1050300007F0F0FB006A0028F4D0A04208BF00206F
:1050400038BD000070B5054640B308F039FB014695
:105050002846FFF7E3FF06460446204600F08FF996
:1050600038B93CB121462846FFF7D8FFB042044684
:10507000F3D10CB9002412E00A4D20462E6800F04E
:1050800041FF01300BD0204600F03CFF2860204655
:1050900000F00AF82E600028ECD100E0044620461B
:1050A00070BD00BFC4960120F0B587B00446002152
:1050B00002A810220CF033F8002C3AD01F4B204AE3
:1050C000196852F82100844216461F4631D01E232B
:1050D0008DE81100029310B102A908F0B3FA012380
:1050E000204602A9059308F0ADFA059D15BB3B6863
:1050F00046F82340204600F0A1F9044638B12023A9
:10510000029302A900AB059308F09CFAF2E7009C19
:10511000204600F032F968B1204600F08FF90446CD
:1051200040B12023029302A900AB059308F08AFA4C
:10513000F2E70125284607B0F0BD00BFC496012064
:10514000B4960120024B1A6818601046704700BFE1
:10515000CC96012008F062BA2DE9F04151EA020331
:105160008AB080460E4617466ED000286CD007F0F5
:105170005BFB0346039003C804AD06AC85E803005F
:1051800084E803007EB19A6A02F42072802A05D175
:10519000BDF81820961BADF8186004E0BDF81C207F
:1051A0001644ADF81C6087B19A6A02F4A062B2F5A9
:1051B000807F05D1BDF81A20D71BADF81A7004E026
:1051C000BDF81E201744ADF81E709B6ADA0302D5A5
:1051D000404600F021FD94E80300039B83E80300B0
:1051E0009B6A9B070AD508A82946224605F0C2FCFF
:1051F000039B08A899691A6A00F012FEBDF91C40C9
:10520000BDF91430BDF91E70BDF91600BDF9186066
:10521000BDF91010BDF91A50BDF91220E31A381A61
:105220000AACAA1A0090711A0398FFF75AFD54F8B5
:105230001C1D01F1080004F02BFB4046052100F085
:105240000BFE204607F0FEFA0AB0BDE8F0811FB55C
:10525000262303916946009308F0AEFC05B05DF883
:1052600004FB2DE9F04188B006460C46154604A81B
:10527000002110220BF053FF36B3304607F0D4FA6A
:1052800021462A46019005F065FC01982146083028
:105290002A4605F05FFC08A850F81C2DD2F81C80A7
:1052A000176A07F0CFFA404621462A46FFF7D9FF92
:1052B00003230493304602AB04A907930294039599
:1052C0003E4608F0BFF9D7E708B0BDE8F0812DE908
:1052D000F0438BB006460D46144606A80021102266
:1052E0000BF01DFF002E43D00DB9002C40D03046EE
:1052F00007F09AFA0346019003C80DF1080888E800
:10530000030022461846294605F024FC01980AAFFE
:1053100029462246083005F01DFC57F8243DD3F8F5
:105320001C90384607F08EFA224648462946FFF779
:1053300098FF304607F078FA826A019092070AD502
:10534000816941B1026A00F056FD019B40469969AE
:105350001A6A00F050FD384607F074FA03230693EA
:10536000304604AB06A909930495059408F06AF940
:105370000BB0BDE8F083FFF7AABF00F03DBC1FB53E
:10538000044608B9002011E007F044FA836A9A073E
:10539000F8D513F01003F5D104A903931F2341F8A6
:1053A000103D2046694600F053FD039804B010BD3F
:1053B000044B1A68044B53F82230C31A5842584120
:1053C000704700BFC4960120B4960120B0F90420B4
:1053D000B0F90030D01A01307047B0F90620B0F9AA
:1053E0000230D01A0130704713B508B900F0FCFE46
:1053F00007F01AFA02ABB0F9002043F8040DB0F937
:1054000004401846A41A07F01DFA0134204602B0E1
:1054100010BD13B508B900F0E7FE07F005FA02ABBE
:10542000B0F9022043F8040DB0F906401846A41A5A
:1054300007F008FA0134204602B010BD08B5034653
:1054400010B107F0E7F98369184608BD1FB5044697
:105450001022684600210BF062FE152320466946A3
:10546000009300F0F5FC039804B010BD024B1A68DD
:10547000024B53F822007047C4960120B4960120D5
:1054800008B5034610B107F0C5F9C369184608BD51
:1054900037B50D4607F0C8F902ABC46943F8040DEF
:1054A000184607F0CFF920466CB1FFF7CFFFA842AE
:1054B000204608D02946FFF7EBFF20B9204607F029
:1054C000A9F9046AEFE703B030BD08B1FFF7E0BF08
:1054D00070470000034B1B685A7C034B53F82200B3
:1054E000704700BFD0000020A49601201FB5002304
:1054F00004A90393172341F8103D694600F0A8FC66
:10550000039805B05DF804FB37B50D4658B151B1AD
:1055100007F08AF902AC294644F8040D00F0A7FC14
:10552000204607F08FF903B030BDFFF7EDBF000054
:10553000044B0146186810B9034B1B68986CFFF7C1
:10554000E3BF00BFA0960120D000002000F0D7BC30
:1055500073B50546002832D007F066F902AC034661
:1055600044F8080D006A08B968460EE09B6A1A07FD
:1055700011D407F059F9836A02AE1B0746F8040DEF
:1055800006D5684607F05EF9304607F05BF916E08D
:10559000304607F057F9009B68469E6907F052F9BC
:1055A000284600F0B7FA3146284600F061FA28464E
:1055B00000F0A5FC28460349002208F09DFB02B03C
:1055C00070BD00BF4D5500080A4A0B4900231370F7
:1055D0000A4A0B6013600A4A4B601360094A136061
:1055E0005360094A1360094A1360094A1360094A63
:1055F0001360704788920120B496012060920120C8
:10560000D8960120E0960120EC960120A09601207A
:10561000CC960120DC96012010B5044607F0FAF87C
:10562000836A044A13F4803F034B204608BF1346A5
:10563000984710BD89640008C56A0008F0B50546A2
:1056400085B00C461646002D4CD0284607F0ECF8E5
:10565000876A0190BB0701463DD502AD26B12846B9
:10566000324604F0E3F802E003C885E80300204670
:10567000294605F06BF970B317F0010F019B1ED19D
:105680003EB1B3F90220B6F902309A42A8BF1346E0
:1056900001E0B3F90230B4F902209342B4F90620D4
:1056A00006DDBDF80A3019B28A4214DB013B04E082
:1056B000BDF80E3019B28A420DDDE3800BE0DF69E0
:1056C0004FB1384621462A46FFF7B8FF384607F063
:1056D000A1F8076AF4E704A850F80C3D1D6A07F02A
:1056E000B1F8B0E705B0F0BD2DE9FF4104460F4623
:1056F00090460025002C37D0204607F095F8866AA2
:105700000190B207014628D502ACB8F1000F04D0D1
:105710002046424604F08AF802E003C884E8030009
:105720003846214605F012F9B8B1F30705D4BDF8A3
:105730000C3001333B8001250FE0019BDE6966B12F
:10574000304639462246FFF7CFFF0028304618BFC3
:10575000012507F05FF8066AF1E704A850F80C3D50
:105760001C6A07F06FF8C5E7284604B0BDE8F08171
:10577000F0B5044685B00E461746002C31D02046C1
:1057800007F052F8856A0190AA07014622D502ACBB
:1057900027B120463A4604F049F802E003C884E8FD
:1057A00003003046214605F0D1F898B1EB0704D448
:1057B000BDF80830013BB3800CE0019BDD694DB1C1
:1057C000284631462246FFF7D3FF284607F022F845
:1057D000056AF4E704A850F80C3D1C6A07F032F89B
:1057E000CBE705B0F0BD00002DE9F341214D2B685A
:1057F0000646986C07F018F80090304607F014F849
:1058000002AC0146019054F8080D083005F09EF8EE
:10581000074628B30199009A2B68174C1F6DD3F8DF
:105820004C8001F10800083204F000F8684607F0E7
:1058300009F8019A2B68B2F90010B2F90220D96474
:105840001A6501A8266006F0FDFF3046FFF7E4FE6A
:10585000002323602B681F65C3F84C80012705E0F7
:10586000684606F0EFFF01A806F0ECFF384602B0EC
:10587000BDE8F081D0000020A09601202DE9F3477B
:10588000064606F0D1FF836A01909B0705D401A864
:1058900006F0D8FF02B0BDE8F087C469002CF6D04E
:1058A000204606F0C1FF836A02AD03F00303032B19
:1058B00045F8080D37D10199083105F047F800285F
:1058C00031D002A850F8043DB3F80890B3F80A802C
:1058D0009F89B3F80EA006F0B5FF684606F0B2FF48
:1058E0002046FFF781FF70B1204606F093FF00903D
:1058F0002046FFF7C3FF204606F08CFF009030469D
:1059000006F088FF0190304606F08EFF0190204699
:1059100006F08AFF019B0090A3F80890A3F80A8084
:105920009F81A3F80EA0009B68461C6A06F08AFFC0
:10593000B4E7000037B5044606F076FF826A0190AE
:1059400040F601031340012B05D001A806F07AFFB1
:105950002046FFF761FE144B1B6813B32046FFF788
:105960008DFF204606F056FF8569046ACDB194B1DB
:10597000204606F04FFF836A03F00303032B02D196
:105980002046FFF731FF2046FFF778FF204606F05C
:1059900041FF046AEBE7284606F03CFF046A85698C
:1059A000E4E703B030BD00BFEC9601202DE9F347DA
:1059B000174D2B680646986C06F036FF2A68B0F83B
:1059C00008A0B0F80A90B0F80C80C78902AC083281
:1059D00044F8040D00F1080392E8030083E8030093
:1059E000204606F02FFF3068FFF7A4FF2B68986C65
:1059F00006F01AFF0190A0F808A0A0F80A90A0F8FD
:105A00000C80C781204606F01DFF02B0BDE8F0877C
:105A1000D0000020F7B507460D46284606F004FFE3
:105A2000836A02AC13F00206014644F8040D04D167
:105A3000204606F007FF304616E0384603F028FF00
:105A4000019B9E69204656B906F0FCFE074B1A687A
:105A5000954208D058682B1A5842584104E006F085
:105A6000F1FE3546D9E7012003B0F0BDA496012030
:105A7000F0B5044685B00D46002949D006F0D4FEA5
:105A80000023036285610190284606F0CDFE019B4C
:105A9000C56902909F6A2DB9C46101A806F0D2FEC3
:105AA00002A833E0284606F0BFFE04AE07F0080760
:105AB00046F8040D77B9836A1A070BD5019B1D625E
:105AC000029B01A8DC6106F0BDFE02A806F0BAFE4A
:105AD00030461BE002A806F0B5FE304606F0B2FEE6
